:020000040800F2
:10000000201E0020A1020008FD300008BD240008C9
:10001000F93000085F1900083F3C000800000000AC
:100020000000000000000000000000002B36000867
:10003000C719000800000000A1310008813800083D
:10004000BB020008BB020008BB020008BB0200089C
:10005000BB020008BB020008BB020008BB0200088C
:10006000BB020008BB020008BB020008BB0200087C
:10007000BB020008BB020008BB020008BB0200086C
:10008000BB020008BB020008BB020008BB0200085C
:10009000BB020008BB020008BB020008BB0200084C
:1000A000BB020008BB020008BB020008BB0200083C
:1000B000BB020008BB020008BB020008BB0200082C
:1000C000BB020008BB020008BB020008BB0200081C
:1000D000BB020008BB020008BB020008BB0200080C
:1000E000BB020008BB020008BB020008BB020008FC
:1000F000BB020008BB020008BB020008BB020008EC
:10010000BB020008BB020008BB020008BB020008DB
:100110006D390008BB020008BB020008BB020008E2
:10012000BB020008BB020008BB020008BB020008BB
:10013000BB020008BB020008BB020008BB020008AB
:10014000BB020008BB020008BB020008BB0200089B
:10015000BB020008BB020008BB020008BB0200088B
:10016000BB020008BB020008BB020008BB0200087B
:10017000BB020008BB020008BB020008BB0200086B
:10018000BB02000800F002F800F061F80AA090E855
:10019000000C82448344AAF10107DA4501D100F042
:1001A00056F8AFF2090EBAE80F0013F0010F18BFAE
:1001B000FB1A43F001031847087C0000287C00006C
:1001C0000A444FF0000C10F8013B13F0070408BF7D
:1001D00010F8014B1D1108BF10F8015B641E05D01B
:1001E00010F8016B641E01F8016BF9D113F0080FD0
:1001F0001EBF10F8014BAD1C0C1B09D16D1E58BF62
:1002000001F801CBFAD505E014F8016B01F8016B98
:100210006D1EF9D59142D6D370470000002300240B
:1002200000250026103A28BF78C1FBD8520728BF06
:1002300030C148BF0B607047752900F06580002011
:1002400070471FB500F00DF91FBD10B510BD00F0CF
:1002500056FA1146FFF7F5FF06F015FB00F074FAA9
:1002600003B4FFF7F2FF03BC00F03EFA0B49D1F8EC
:1002700000C04A685CF8043B1068184442F8040B5C
:100280008C4528BFA1F1DC0C8A4228BFA1F1DC0219
:10029000C1F800C04A6020F000407047B817002045
:1002A0000948804709480047FEE7FEE7FEE7FEE70A
:1002B000FEE7FEE7FEE7FEE7FEE7FEE70448054946
:1002C000054A064B70470000CD380008850100083C
:1002D00020180020201E0020201A0020201A0020B4
:1002E0000FB41CB5074B06AA7B44694600900598DD
:1002F00000F0AFF90020694600F0BEF91CBC5DF8C3
:1003000014FB00008D0300002DE9F0410646002497
:1003100010687529314616A511D0AFF3008000286A
:1003200003DAC0F1000013A507E031688A0701D5A0
:1003300011A502E0490704D510A5012401E0AFF39F
:10034000008000210A2306F1240707E0B0FBF3F246
:1003500003FB1200303078541046491C0028F5D1B8
:1003600023462A463046BDE8F04100F011B90000AE
:10037000000000002D0000002B0000002000000005
:100380002DE9F0410F460546002028622846E9681D
:10039000884770B3252805D0D5E901219047286A00
:1003A000401CF2E7E9682846002688476C28044686
:1003B0000AD0682C08D04C2C35D06A2C31D0742C43
:1003C00031D07A2C2FD016E0E968064628468847B7
:1003D000B042044608D16C2E23D04FF480662846E4
:1003E000E9688847044606E06C2E03D04FF4807617
:1003F00001E01EE04026E4B1A4F14100192802D832
:10040000203446F400663A46214628462E60FFF71F
:1004100013FF60B1012808D0FF1D27F00707083738
:10042000B4E78026DBE70026D9E73F1DAEE720468C
:10043000B2E7286ABDE8F0810B4910B5A1F17C0252
:100440000A4CC2E93712372106E000EB104342F8AC
:100450002130074B00FB03400B1EA1F10101F4DC2E
:1004600010BD0120E8E7000058170020E119D6660A
:10047000CD0D010010B5431C02E010F8011B71B155
:100480008107FAD14FF0013202C88C1A8C4314EA6A
:10049000C211F9D0C01A0A0603D0C01E10BDC01A7E
:1004A00010BD0A0401D0801E10BD0902FCD0401E00
:1004B00010BD032A40F2308010F0030C00F01580CC
:1004C00011F8013BBCF1020F624498BF11F801CB57
:1004D00000F8013B38BF11F8013BA2F1040298BFBC
:1004E00000F801CB38BF00F8013B11F0030300F026
:1004F000C880083AC0F0088051F8043B083A51F827
:1005000004CBA0E80810F5E7121D5CBF51F8043BCE
:1005100040F8043BAFF30080D20724BF11F8013B41
:1005200011F801CB48BF11F8012B24BF00F8013BA3
:1005300000F801CB48BF00F8012B70474FF00002D4
:1005400000B5134694469646203922BFA0E80C50C9
:10055000A0E80C50B1F12001BFF4F7AF090728BFA4
:10056000A0E80C5048BF0CC05DF804EB890028BF20
:1005700040F8042B08BF704748BF20F8022B11F049
:10058000804F18BF00F8012B7047704770477047C5
:100590002DE9F0470D4699469246044600F124089D
:1005A0000168880604D5E06921F01001216000E0AF
:1005B0000120A84202DDA0EB050700E00027A169A9
:1005C00007EB050202EB0900A1EB0000A061207817
:1005D000C00602D42046AFF30080002608E0D4E92C
:1005E00001211AF806009047206A401C761C206200
:1005F0004E45F4DB2078C0060AD52046AFF30080D4
:1006000006E0D4E9012130209047206A401C206296
:10061000381EA7F10107F4DC07E0D4E9012118F83E
:1006200005009047206A401C2062281EA5F10105A4
:10063000F3DC2046AFF300802078000602D50220CC
:10064000BDE8F0870120FBE701694A1C02610878D8
:10065000704700B58FB0CDE9013100210591054902
:100660007944CDE9031011466846FFF789FE0FB0C3
:1006700000BD0000E5FFFFFF0A6802F8010B0A60F9
:10068000704710B5203AC0F00B80B1E81850203AFE
:10069000A0E81850B1E81850A0E81850BFF4F5AF22
:1006A0005FEA027C24BFB1E81850A0E8185044BFAC
:1006B00018C918C0BDE810405FEA827C24BF51F819
:1006C000043B40F8043B08BF7047D20728BF31F80D
:1006D000023B48BF11F8012B28BF20F8023B48BF5E
:1006E00000F8012B7047000001491820ABBEFEE75F
:1006F0002600020000487047C0170020704775466A
:10070000FFF7F8FFAE4605006946534620F00700A4
:10071000854618B020B5FFF7D1FDBDE820404FF069
:1007200000064FF000074FF000084FF0000B21F0DB
:100730000701AC46ACE8C009ACE8C009ACE8C009A8
:10074000ACE8C0098D4670470446AFF300802046F0
:10075000FFF786FD0420704770470000002018E076
:10076000002100EB40020C4B03EB8202516000EBD6
:10077000400203EB82025172622100EB400203EB64
:1007800082029172002100EB400203EB820211729F
:10079000401C0428E4D370474C1600200146042076
:1007A000042900D2084670472DE9F04106460C4660
:1007B00000273046FFF7F2FF0546042D09D22A46EE
:1007C00005A10A48FFF78CFD0849204604F064FAA9
:1007D00007463846BDE8F081414E414C4F4720491D
:1007E0004E50555420256C75000000002C1600203A
:1007F00030B5044600252046FFF7D0FF0346042B02
:1008000005D203EB4300034901EB8000456828460D
:1008100030BD00004C16002030B505460B4628467A
:10082000FFF7BCFF0446042C05D204EB4400024948
:1008300001EB8000436030BD4C16002008B1044B32
:10084000036009B1034B0B600AB1034B136070479F
:10085000447D0008687D0008747D00082DE9F043A0
:1008600097B0044600260027B0461CB1206908B1A5
:10087000606918B9002017B0BDE8F0836068FFF721
:100880008DFF0746042F05D207EB4700584901EBBF
:10089000800502E04FF0FF30EDE7D4F810802089AA
:1008A000552839D00EDC4D2825D006DC1C2823D055
:1008B000242858D04B286ED116E04F2826D0512836
:1008C0007DD15CE042F20D72811A904264D006DC68
:1008D00067284ED06F2829D0752870D155E001299E
:1008E00060D002296BD163E000214046626805F0C8
:1008F000C8F806466AE000BF01A96068FFF754FF28
:1009000001A9404605F083F806465FE00021404615
:1009100005F09CF8064659E06068FFF769FF8146DC
:100920004946404605F0C3F806464FE013A804F0D8
:10093000D9F80022114613A804F0E8F8002201219A
:1009400013A804F0E3F80022022113A804F0DEF853
:100950006A7A032113A804F0D9F813A9404605F0D8
:100960002BF8064632E00021404605F06FF80646B7
:100970002CE0297A404605F069F8064626E0697AB7
:10098000404605F032F8064620E0A97A404605F0D8
:100990005DF806461AE012E01649404605F087F871
:1009A000064613E05A21404605F0A5F806460DE03C
:1009B0006FF0C701404605F08CF8064606E00220BD
:1009C0002076202060764FF0FF3600BF00BF002E5B
:1009D0000BDB2089822808D0E068401C05D002206B
:1009E0002076322060764FF0FF36304643E7000035
:1009F0004C1600201F05B54210B503461846FFF7F8
:100A0000CDFE0446042C01D2012010BD0020FCE7DD
:100A10002DE9F04194B0044600250027A8466A4617
:100A200004F11000D4F8F01103F00AFE8046B8F18A
:100A3000000F09DA022084F8F501252084F8F60178
:100A4000002014B0BDE8F081208982280AD0E06837
:100A5000401C07D0022084F8F501322084F8F6010A
:100A60000020EEE76068FFF799FE0746042F05D2E5
:100A700007EB47003B4901EB800601E00020E0E77F
:100A80002089552821D00EDC4D2851D006DC1C28A9
:100A900052D024284FD04B2859D148E04F2848D075
:100AA000512854D12AE042F20D72811A904245D069
:100AB00006DC672841D06F283CD0752847D12AE052
:100AC00001293CD0022942D13AE004F5FB735A1EB9
:100AD0000421684603F0B5F8054675B1707A01281F
:100AE00004D101996068FFF797FE06E0022084F8C0
:100AF000F501282084F8F60100252FE004F5FB73AA
:100B00005A1E0121684603F09CF8054615B19DF870
:100B10000400707222E004F5FB735A1E0921684636
:100B200003F08FF805460DB10198B07216E000BFD2
:100B300000BF00BF00BF00BF00BF00BF00BF00BFBD
:100B4000022084F8F501282084F8F60106E002204E
:100B500084F8F501202084F8F60100BF00BF284684
:100B60006FE700004C16002004207047704700001B
:100B70000A4A12788AB90122084B1A7000200AE04A
:100B8000002105E0FF22064B03EB00135A54491CD9
:100B90001029F7D3401C0428F2D37047E30100204A
:100BA0009C16002001460420042900D20846704704
:100BB00070B504460D460026042C09D2224605A134
:100BC0000948FFF78DFB0849284604F065F80646FA
:100BD000304670BD414E414C4F47204F5554505503
:100BE0005420256C750000007C1600202DE9F04192
:100BF00006460027002500243046FFF7D3FF0546B0
:100C0000042D13D200BF0EE00A4800EB0510005D72
:100C1000FF2807D0074901EB0511085D06F0CAFF60
:100C2000074602E0641C102CEED300BF3846BDE836
:100C3000F08100009C16002070B505460B4600248C
:100C400000262846FFF7AEFF0446042C0BD253B112
:100C5000102B08D8062B06D0FF21044800EB041205
:100C6000581E11540126304670BD00009C1600200D
:100C70002DE9F04781460D4614460026B246484607
:100C8000FFF790FF0646042E21D204B3102C1ED885
:100C9000062C1CD0284606F041FF074600221346CA
:100CA00006F006FF13D8284606F038FF0746002254
:100CB000084B06F06DFE0AD8284606F05BFFC1B26D
:100CC000054800EB0612601E11544FF0010A504611
:100CD000BDE8F087000059409C16002008B1044B85
:100CE000036009B1034B0B600AB1034B13607047FB
:100CF000847D0008B07D0008B87D00082DE9F04F24
:100D000097B004464FF000090025DFF81CA200262A
:100D10000027AB46A8461CB1206908B1606918B924
:100D2000002017B0BDE8F08FD4F81080208951283A
:100D30005FD00CDC4B2817D004DC1C281CD02428E6
:100D400072D150E04D2816D04F28F9D11EE0682806
:100D50006BD004DC55281FD05728F1D15CE06F28F8
:100D600024D07528ECD151E001214046626804F09E
:100D700088FE0546C7E000BF01A96068FFF718FFBD
:100D800001A9404604F043FE0546BCE0012140466F
:100D900004F05CFE0546B6E06068FFF727FF824678
:100DA0005146404604F083FE0546ACE013A803F02C
:100DB00099FE0022114613A803F0A8FE002201218B
:100DC00013A803F0A3FE0022022113A803F09EFE45
:100DD0000022032113A803F099FE13A9404604F052
:100DE000EBFD05468FE00021404604F02FFE05464E
:100DF00089E06068FFF7D6FE06464C4810F806B05A
:100E00005946404604F0F1FD05467CE0622140462B
:100E100004F01CFE054676E0E06838B91021404633
:100E200004F069FE05465EE066E05DE0E068401CB7
:100E300030D16068FFF7B6FE0646002727E03C4841
:100E400000EB0610C05DFF2805D108EB050004F09B
:100E50000FFE81460CE0364901EB0611C85D06F035
:100E6000A9FE824608EB0500514604F020FE8146AB
:100E700005EB0900B0F5F07F01DA4D4406E00520EE
:100E80002076122060764FF0FF3502E07F1C102F95
:100E9000D5D328E06068FFF785FE0646E068102895
:100EA0001BD8234800EB0611E068401E085CFF28B1
:100EB00004D1404604F0DCFD054614E01C4901EB7A
:100EC0000612E168491E505C06F074FE82465146E7
:100ED000404604F0ECFD054605E0022020762A207D
:100EE00060764FF0FF350EE04FF0000A5146404665
:100EF00004F0DDFD054606E0022020762020607625
:100F00004FF0FF3500BF00BF002D0BDB20895728B5
:100F100008D0E068401C05D00220207632206076A0
:100F20004FF0FF352846FCE6F4FDB43FE401002015
:100F30009C1600200146042901D2012070470020A0
:100F4000FCE70000F0B595B0044600250026002718
:100F500001AA04F11000D4F8F01103F071FB074668
:100F6000002F08DA022084F8F501252084F8F60124
:100F7000002015B0F0BD208957280AD0E068401C39
:100F800007D0022084F8F501322084F8F601002011
:100F9000EFE72089512853D00CDC4B2862D004DCC9
:100FA0001C2867D024286CD160E04D285BD04F28E6
:100FB00067D159E068285CD004DC552807D0572851
:100FC0005FD155E06F2850D075285AD14FE09DF879
:100FD0000600042819D194F8F42102996068FFF7FB
:100FE00047FE054694F8F401062806D1022084F84D
:100FF000F501282084F8F60121E005BB022084F8E1
:10100000F501252084F8F60119E004F5FB735A1E5A
:10101000002101A802F015FE054685B16068FFF7C2
:10102000C1FD064694F8F4116068FFF705FE054619
:101030002DB9022084F8F501252084F8F60127E077
:1010400004F5FB735A1E012101A802F0FAFD0546C2
:101050003DB16068FFF7A6FD06469DF808000E4901
:10106000885515E000BF00BF00BF00BF00BF00BF34
:1010700000BF00BF022084F8F501282084F8F601A3
:1010800006E0022084F8F501202084F8F60100BF74
:1010900000BF28466DE70000E401002005207047EE
:1010A000704700000749097851B90121054A1170BC
:1010B000002003E00021044A1154401C0528F9D304
:1010C00070470000CE010020CF010020014605201E
:1010D000052900D20846704770B504460D46002623
:1010E000052C09D2224605A10648FFF7F9F8054963
:1010F000284603F0D1FD0646304670BD42492D25F5
:101100006C7500000A16002030B504460025002347
:101110002046FFF7DBFF0346052B01D20148C55CE3
:10112000284630BDD401002030B505460C460023CA
:101130002846FFF7CBFF0346052B08D20448C05CC6
:10114000A04202D001200349C8540148C45430BD14
:10115000D4010020D901002001460020052901D238
:10116000014A505C70470000DE010020024600206A
:10117000052A01D2014B995470470000DE0100207E
:1011800030B50446002500232046FFF79FFF0346A5
:10119000052B01D20148C55C284630BDCF01002097
:1011A00070B505460C46002300262846FFF78EFF43
:1011B0000346052B09D20648C05CA04202D001209C
:1011C0000449C8540248C4540126304670BD00008A
:1011D000CF010020D901002008B1044B036009B100
:1011E000034B0B600AB1034B13607047147D00087A
:1011F000387D0008407D0008F0B597B00446002512
:1012000000261CB1206908B1606910B9002017B030
:10121000F0BD266920894F2824D008DC1C2817D06F
:10122000242856D04B280BD04D286CD10FE05128E4
:1012300055D054285DD055281AD06F2863D121E0AD
:1012400003213046626804F01CFC054662E000BFE2
:1012500001A96068FFF740FF01A9304604F0D7FB01
:10126000054657E00321304604F0F0FB054651E007
:101270006068FFF785FF07463946304604F0E6FB15
:10128000054647E013A803F02DFC0022114613A8E1
:1012900003F03CFC0022012113A803F037FC0022DC
:1012A000022113A803F032FC6068FFF72DFF28B17C
:1012B0000122032113A803F029FC04E000220321EA
:1012C00013A803F023FC13A9304604F075FB054670
:1012D00020E00021304604F0B9FB05461AE06068C2
:1012E000FFF712FF07463946304604F07EFB0546FD
:1012F00010E06068FFF730FF07463946304604F0DB
:10130000A5FB054606E002202076202060764FF0FF
:10131000FF3500BF00BF002D08DBE068401C05D092
:1013200002202076322060764FF0FF3528466EE7A7
:101330000146052901D2012070470020FCE770B565
:1013400094B00446002500266A4604F11000D4F843
:10135000F01103F075F90646002E08DA022084F831
:10136000F501252084F8F601002014B070BDE06876
:10137000401C07D0022084F8F501322084F8F601E1
:101380000020F2E7208951281DD054282AD0552862
:1013900042D104F5FB735A1E0921684602F051FC44
:1013A00005467DB10198012805D8019AD1B260683F
:1013B000FFF7F6FE06E00025022084F8F50125205F
:1013C00084F8F6012FE004F5FB735A1E01216846EC
:1013D00002F037FC054625B19DF804106068FFF760
:1013E000A3FE20E004F5FB735A1E0921684602F0B3
:1013F00028FC05467DB10198022805D2019AD1B298
:101400006068FFF7B3FE06E00025022084F8F501CE
:10141000252084F8F60106E0022084F8F501282052
:1014200084F8F60100BF00BF28469EE705207047FC
:101430007047000070B5002412E00021204600F043
:101440004DF80021204600F037F8002505E0FF2088
:10145000054901EB041148556D1C102DF7D3641C90
:10146000052CEAD370BD0000BA1500200146052006
:10147000052900D20846704770B504460D4600267F
:10148000052C07D204F130000349C870284603F048
:1014900003FC0646304670BDB40100200146002022
:1014A000052906D2034A525C0AB1012200E000225B
:1014B00010467047C4010020052801D2014A11548A
:1014C00070470000C401002001460020052901D218
:1014D000014A505C70470000C9010020052803D272
:1014E000022901DA014A115470470000C9010020A5
:1014F00070B5044600252046FFF7B8FF054628468C
:1015000001F050FE70BD000010B503460020052B11
:1015100006D2102A04D2034C04EB0314A154012078
:1015200010BD0000BA15002008B1044B036009B1DA
:10153000034B0B600AB1034B13607047D87C000863
:10154000047D0008107D00082DE9F04F97B0044697
:101550004FF0000A0025A8460027A946AB46002602
:10156000206908B1606918B9002017B0BDE8F08F94
:1015700026692089542850D008DC042877D02428F4
:1015800034D02E2874D0512873D135E0552806D098
:1015900057284DD068286DD06F28F5D109E06068D4
:1015A000FFF7A6FF80464146304604F04FFA054655
:1015B000C0E013A803F096FA0022114613A803F026
:1015C000A5FA0022012113A803F0A0FA00220221AB
:1015D00013A803F09BFA0022032113A803F096FA44
:1015E00013A9304604F0E8F90546A3E0002130468F
:1015F00004F02CFA05469DE06068FFF737FF0746C8
:101600005548C05D08B1012000E0002083465946DE
:10161000304604F0EAF905468CE06068FFF726FFE3
:1016200007464E48C15D304604F010FA054681E099
:10163000E06828B91021304604F05DFA054655E00F
:10164000E068401C30D16068FFF710FF07464FF09C
:10165000000925E0424800EB071010F80980B8F1B6
:10166000FF0F08D1701904F003FA824608E046E043
:101670004FE058E03BE07019414604F0E7F982463C
:1016800005EB0A00B0F5F07F01DA554406E00520CD
:101690002076122060764FF0FF3504E009F1010951
:1016A000B9F1100FD6D321E06068FFF7DFFE0746DF
:1016B000E068102814D82A4800EB0711E068401EA3
:1016C00011F80080B8F1FF0F04D1701904F0D0F9BF
:1016D00005460BE07019414604F0B8F9054605E0EF
:1016E000022020762A2060764FF0FF3522E04FF06E
:1016F00000084146304604F0A9F905461AE019A150
:1017000001A803F0C9FA01A9304604F080F90546A2
:1017100010E015A101A803F0BFFA01A9304604F0BA
:1017200076F9054606E002202076202060764FF00C
:10173000FF3500BF00BF002D0BDB2089572808D0E4
:10174000E068401C05D002202076322060764FF001
:10175000FF35284609E70000C4010020C901002028
:10176000BA1500206F6E00006F66660001460529FD
:1017700001D2012070470020FCE72DE9F04194B030
:101780000446002600254FF0FF0800276A4604F1B2
:101790001000D4F8F01102F053FF0746002F09DAC9
:1017A000022084F8F501252084F8F601002014B009
:1017B000BDE8F081208957280AD0E068401C07D096
:1017C000022084F8F501322084F8F6010020EEE7CB
:1017D000208951287BD00EDC4B286CD006DC0428F5
:1017E0006AD0242869D02E2868D1A6E04D287DD063
:1017F0004F28F9D19AE0672879D006DC542879D0AF
:10180000552807D05728EFD194E0682871D06F2869
:10181000EAD18CE004F5FB735A1E0921684602F0F8
:1018200010FA06462EB394F8F45185B1102D0ED857
:10183000062D0CD00198012809D8019800F0FF0866
:101840006D1E2A4641466068FFF75EFE3EE0062DAB
:1018500007D10026022084F8F501282084F8F6013B
:1018600034E00026022084F8F501252084F8F601F2
:101870002CE004F5FB735A1E0021684602F0E1F9E2
:1018800006461EB34FF0FF0894F8F45145B1102DF1
:1018900006D86D1E2A4641466068FFF735FE15E002
:1018A000062D0CD10026022084F8F501282084F8AA
:1018B000F6010BE00BE037E03EE03AE044E00026C2
:1018C000022084F8F501252084F8F60143E004F5B0
:1018D000FB735A1E0121684602F0B3F9064626B191
:1018E0009DF804106068FFF7E7FD34E01DE01FE09D
:1018F00000E020E004F5FB735A1E0921684602F05F
:10190000A0F906467EB10198022805D2019AD1B20B
:101910006068FFF7E3FD06E00026022084F8F50189
:10192000252084F8F60116E000BF00BF00BF00BF0D
:1019300000BF00BF00BF00BF00BF022084F8F50158
:10194000282084F8F60106E0022084F8F501202022
:1019500084F8F60100BF00BF00BF304627E700BF94
:10196000FEE710B503460A46D0B280EA0301101222
:1019700080EA012080EAC10080EA013080EA21107B
:1019800001F00F04604001F00F0480EAC41080B23F
:1019900010BD10B502460B4683EA020181EA410000
:1019A00080EA810080EAC10080EA011080EA4110EB
:1019B00080EA811080EAC11081B201F0FE00C1F31B
:1019C0000024604010BD7047012070470148006846
:1019D000704700006C01002002480068401C01496B
:1019E000086070476C010020014600BF0148006894
:1019F000704700006401002070B505460024104CBB
:101A000004E0606808B16068804724342088B0F53D
:101A1000806FF6DB0021084603F002FA09480068EF
:101A20000949884207D340F2EB300649086008466E
:101A30000068FEF701FD05A1054803F02DF970BD12
:101A40008C00002064010020FFFF3F00444443005D
:101A5000F80C002001480068704700006401002075
:101A600070B500250024074C05E0A06810B1A068FF
:101A70008047054424342088B0F5806FF5DB284684
:101A800070BD00008C0000202DE9F04705460F4690
:101A900090464FF0000AD1460026002415B9504662
:101AA000BDE8F0876E1E0F4C15E0A06890B1E068AD
:101AB00080B1A6EB0906A068804781464E4509D251
:101AC000208838603046E1688847C8F800004FF049
:101AD000010A04E024342088B0F5806FE5DB00BF04
:101AE0005046DDE78C00002070B504460D46002608
:101AF00005480068844204D10449284603F085F86B
:101B00000646304670BD000064010020F80C00203D
:101B10002DE9F04107460D4616460024A0463846FA
:101B200000F00CF8044634B1606920B13146284613
:101B30006269904780464046BDE8F0810246002138
:101B4000064905E00888904201D1084670472431D3
:101B50000888B0F5806FF5DB0020F7E78C000020E7
:101B600070B506460C46002500202060A06020616C
:101B70003046FFF7E3FF054645B1286A30B104F16E
:101B8000100204F1080120462B6A9847206808B922
:101B9000002002E0206805F087F86060A06808B9BE
:101BA000002002E0A06805F07FF8E060206908B935
:101BB000002002E0206905F077F8606170BD000048
:101BC00008B1044B036009B1034B0B600AB1034B2E
:101BD00013607047687C0008BC7C0008D07C00085B
:101BE00070B504464FF0FF3600252088FFF7A6FFAA
:101BF000054685B1286948B160682969884728B1D8
:101C00002146284601F03EFC064608E001202076E9
:101C10001F20607603E0012020761F20607630468A
:101C200070BD00002DE9F04F99B004460026B04683
:101C300000250020029001908146824600272069FD
:101C400008B1606918B9002019B0BDE8F08FD4F868
:101C500010A020894C286ED01CDC3A283ED00CDC29
:101C60001C2831D004DC0B2871D00C2870D173E013
:101C70001E286ED02C28F9D15EE040286AD004DC02
:101C80003E2868D03F28F1D131E1462849D0492883
:101C9000ECD119E178283ED00CDC622866D004DC57
:101CA00060286FD06128E1D16EE06B286BD070287E
:101CB000DCD11DE0792824D08B285DD09B287AD0F8
:101CC000B0F5165FD2D124E1A2A103A802F0E4FF8F
:101CD00003A9504603F09BFE06462AE1A3A103A8F0
:101CE00002F0DAFF03A9504603F091FE064620E118
:101CF00000F092F983465946504603F0A7FE064687
:101D000017E19BA103A802F0C7FF03A9504603F007
:101D10007EFE06460DE1E221504603F0ECFE06464B
:101D200007E195A103A802F0B7FF03A9504603F00D
:101D30006EFE0646FDE068E09348016803A802F0E5
:101D4000ABFF03A9504603F062FE0646F1E0B2E0A5
:101D5000E8E0C2E0D4E09EE08CA103A802F09CFF82
:101D600003A9504603F053FE0646E2E00121504627
:101D700003F0C1FE0646DCE00A21504603F0BBFE3C
:101D80000646D6E018E08DE015A802F0ABFE00256F
:101D900009E0E8B202F08AF98346E9B25A4615A88A
:101DA00002F0B4FE6D1C282DF3D315A9504603F0A4
:101DB00003FE0646BDE091E015A802F093FE002563
:101DC00005E0E9B2002215A802F0A0FE6D1C332D3B
:101DD000F7D3002505EBC5006D4901EB80070AE04C
:101DE000B86838B1B868804720B13978012215A8A1
:101DF00002F08CFE24373888B0F5806FF0DB15A92F
:101E0000504603F0D9FD064693E0FFF729FE8146D0
:101E1000E06828B94946504603F06DFE064639E0B1
:101E2000E068401C23D101251EE001AA02A9284632
:101E3000FFF72AFE88B10AEB0600DDE9012103F075
:101E400020FE8046464406EB0800B0F5F07F0ADB32
:101E5000362060766FF0010608E00520207600202D
:101E60006076461E02E06D1C4D45DED912E001AAE7
:101E700002A9E068FFF708FE30B15046DDE9012114
:101E800003F0FFFD064605E0022020762A2060765A
:101E90004FF0FF364DE04FF4F071504603F02BFE4B
:101EA000064646E000F096F883465946504603F051
:101EB000CDFD06463DE002F06BF98346594650469B
:101EC00003F019FE064634E002F0EAF8834659466C
:101ED000504603F010FE06462BE02AE0FFF776FDA1
:101EE00083465946504603F006FE064621E003F0BD
:101EF0007FFC83465946504603F0FDFD064618E038
:101F000003F07CFC83465946504603F0F4FD064638
:101F10000FE005F091F983465946504603F0EBFD7A
:101F2000064606E002202076202060764FF0FF363D
:101F300000BF00BF002E0BDB20894C2808D0E068D2
:101F4000401C05D002202076322060764FF0FF360C
:101F5000304679E64241436E657420446576656C8F
:101F60006F706D656E74204B6974000055534100AD
:101F7000524543540000000062646B2D73746D334E
:101F8000322D6D73747000000C000020312E300073
:101F90008C00002070B5044600250BA1201D02F026
:101FA00002FE40B120780A4908700021084602F07C
:101FB00037FF012505E0042084F84C001A2084F83E
:101FC0004D00284670BD000061646D696E00000020
:101FD000690100200320704701460120B1F5800F00
:101FE00002D2024A116000E0002070476401002024
:101FF00070B5044600252146064802F063FE30B95C
:102000002146044802F001FE0546FFF7E5FC28469C
:1020100070BD0000F80C00200148007870470000F7
:1020200068010020014604480068884201D101206F
:1020300070470020FCE70000640100202DE9F04F0C
:1020400095B080460C4615464FF0000900201490CC
:102050008246002683460027FFF702FD82460126BE
:1020600024E013AA14A93046FFF70EFD8346BBF106
:10207000000F1AD0149988B2FFF760FD0746A7B188
:10208000786990B101A97A691398904768B101A95C
:10209000404602F017FE40B14FF001090CB1149810
:1020A00020600DB11398286002E0761C5645D8D9FF
:1020B00000BF484615B0BDE8F08FE220704770B50C
:1020C0000446002600252088FFF738FD0546D5B1D7
:1020D000286988B160682969884768B1E86920B1D2
:1020E0002046E9698847064613E0022084F8F50196
:1020F000282084F8F6010CE0012084F8F5011F2067
:1021000084F8F60105E0012084F8F5011F2084F829
:10211000F601304670BD00002DE9F04194B0044650
:1021200000270025A84600266A4604F11000D4F8CE
:10213000F01102F085FA0546002D09DA022084F834
:10214000F501252084F8F601002014B0BDE8F081E7
:1021500020894C280AD0E068401C07D0022084F86F
:10216000F501322084F8F6010020EEE720894F289F
:1021700079D018DC402867D00CDC2C2874D004DC23
:102180000C2872D01E2871D1F5E03E286FD03F2870
:10219000F9D13EE046286BD04B281ED04C2868D0A1
:1021A0004D28F0D178E0792872D00CDC622870D00C
:1021B00004DC60286ED06128E5D1D7E06B286AD0B6
:1021C0007828E0D1CCE08B2876D0982875D09B2851
:1021D00074D0B0F5165FD6D1A4E09DF802000C28AB
:1021E00010D1BDF80400082805D10298FFF7F4FECD
:1021F00008B101270CE0022084F8F501252084F8BD
:10220000F60105E0022084F8F501092084F8F601C2
:10221000C1E09DF8020002280FD10198FF2805D8DF
:102220000199C8B203F0AEFB01270CE0022084F84C
:10223000F501252084F8F60105E0022084F8F50177
:10224000092084F8F601A6E09DF80200022818D1C2
:10225000019878B101987F280CD80199C8B203F091
:1022600099FB012713E079E07CE07CE08CE080E0E2
:1022700077E07DE0022084F8F501252084F8F6015E
:1022800005E0022084F8F501092084F8F60182E0D7
:1022900065E069E06BE06DE09DF8020007283AD147
:1022A00001A802F00AFD06464EB9022084F8F501A5
:1022B000252084F8F60134E057E05DE05DE0384821
:1022C00002F09EFCB0421FD901A802F0B6FC804685
:1022D000B8F1060F11DA0022114601A8FFF7AEFE91
:1022E00030B1022084F8F501302084F8F60118E0BE
:1022F00001A8FFF77DFE012713E0022084F8F50115
:10230000292084F8F6010CE0022084F8F50114205D
:1023100084F8F60105E0022084F8F501092084F82C
:10232000F60138E09DF80200022810D10198B0F5BE
:10233000E13F05D8019804F09FFF08B101270CE0A8
:10234000022084F8F501252084F8F60105E002203A
:1023500084F8F501092084F8F6011CE000BF00BFF5
:1023600000BF00BF00BF00BF00BF00BF00BF00BF75
:1023700000BF00BF00BF00BF00BF022084F8F5010E
:10238000282084F8F60106E0022084F8F5012020D8
:1023900084F8F60100BF00BF00BF3846D5E6000054
:1023A000F80C00201CB50121022000F017FF4FF4AB
:1023B0004040009001208DF8040000208DF80600B8
:1023C00003208DF8050000208DF8070069460248BB
:1023D00000F004F81CBD000000040240F0B50A46FD
:1023E00000210023002400BF3DE0012505FA01F390
:1023F000156805EA03049C4234D105684F000326A2
:10240000BE40B543056015794E00B54006683543BA
:1024100005601579012D02D01579022D16D1856838
:102420004F000326BE40B543856055794E00B54048
:10243000866835438560456801268E40B543456012
:10244000456896798E40B6B235434560C5684F0001
:102450000326BE40B543C560D5794E00B540C66879
:102460003543C560491C1029BFD3F0BDF0B500232A
:1024700000244D07ED0E02FA05F3CE1000F1200501
:1024800055F826504E07F70E0F26BE40B543CF1025
:1024900000F1200646F82750CE1000F1200555F82F
:1024A000265045EA0304CE1000F1200545F82640E9
:1024B000F0BD0AB1018300E04183704700BFFEE731
:1024C0002DE9FC5F0025002600274FF00A08A946E9
:1024D000AA46F9480078FF2802D10020F749087081
:1024E000F7480078401CF7490978491C90FBF1F245
:1024F00001FB1200C5B2F0480078401CF149097890
:10250000491C90FBF1F201FB1200C6B2EE480078C4
:10251000401CEC490978491C90FBF1F201FB1200C8
:10252000C7B2E648007809287CD2DFE800F0055DF4
:10253000F7F5F4F3F2F1F000DF480078FF283DD121
:1025400002F062FEDC480078FF284CD0DA480078C0
:1025500001F018FFDC49087008460078FF2817D101
:10256000D54800780870D4480078D54908703220E2
:10257000D64908600020D6490870D648006820F087
:1025800008000830D34908600720CC4908702AE0C9
:10259000C9480078CA4908700120CC490860002069
:1025A000CB490870CC490860CA48006820F0080090
:1025B000C84908600520C149087014E0BE48007889
:1025C000C1490870BC480078BD4908703220BF4935
:1025D0000860C048006820F00800BE49086001207B
:1025E000B6490870824664E34FF4FA7004F0A0FE26
:1025F000C8B10020B6490870B648006820F0020053
:10260000B44908600846006820F0010008600846E8
:10261000006820F0040008600620A84908704FF008
:10262000010A73E041E3AB48007810F0010F06D0D7
:10263000A848006820F00100A649086066E0A548A7
:102640000078C0F34000002860D0A4480078072834
:102650004FD2DFE800F0041E4E404F312900A04861
:102660000078FF2800D146E09A48006820F0020078
:102670009849086000209B4908709648006820F03F
:1026800008009449086002208C4908704FF0010A44
:1026900031E0002003460090874802789248017894
:1026A000022000F03FFC26E08A48006820F010007D
:1026B0001030884908601EE08648006820F010004D
:1026C00010308449086086480078FF2802D008202E
:1026D0007A4908700FE08548008880B200908448ED
:1026E00003687548027880480178042000F01AFCDD
:1026F00001E000BF00BF00BF70480078082805D087
:102700007448006820F0020072490860D1E27BE260
:10271000E2E1B4E176E1A4E04CE0FFE7754800F0C7
:1027200036FF48B1744800786E4908700420634948
:1027300008704FF0010A3CE06E4800F060FF04466C
:10274000207810B14FF0050B01E04FF0060B6088C8
:1027500000906178231D58480278584600F0E2FB4B
:1027600060480078401C5F490870BBF1030F14D02B
:10277000BBF1040F16D0BBF1050F03D0BBF1060F60
:102780000FD110E06078FF2803D104204B49087076
:1027900002E003204949087009E003204749087016
:1027A00005E000BF00BF04204449087000BF00BF1F
:1027B00000BF7EE24FF4827004F0BAFD48B14E488B
:1027C00000784849087004203C4908704FF0010A1D
:1027D00046E04048007810F0010F0BD03D480068FB
:1027E00020F001003B4908600420344908704FF094
:1027F000010A35E037480078C0F3400080B338481C
:1028000000782D49097888421FD13448007804287F
:1028100007D0062809D0072812D1042027490870BC
:1028200012E00420254908700EE02A48006820F0D4
:10283000100010302749086004202049087003E088
:1028400001201E49087000BF02E001201B490870EA
:102850002048006820F002001E4908604FF0010A7D
:1028600027E22048007824490978884205DA0220C6
:10287000124908704FF0010AC3E016480078C0F30F
:10288000C000C0B9104800780B490978884235D19A
:102890000B4806700020034600900748027808485D
:1028A0000178012000F03EFB00200B490860072062
:1028B00002490870A5E021E0710100209601002086
:1028C0008801002072010020870100209001002073
:1028D000A1010020980100208C010020A20100200D
:1028E000A001002086010020AA0100209C010020F8
:1028F000A40100207415002073010020EF48006837
:1029000031282ED2EE480078C0F3C00088B1ED48DF
:102910000078B0420DD00020EB490870E74800680D
:10292000401CE64908600220E84908704FF0010A9F
:1029300067E0E2480068401CE04908600020034668
:102940000090E3480278DF480178002000F0EAFABE
:102950000020E0490860E04908700520DB49087064
:102960004FE0D8480078854239D1D5480078C0F387
:10297000C000C8B1D9480770002003460090D44871
:102980000278D6480178012000F0CCFAD0480078CF
:10299000CC4908700020CF4908600120C749086071
:1029A0000720CA4908702CE0C9480078CB49087054
:1029B000002003460090C6480278C24801780020F3
:1029C00000F0B0FA0020C34908600120BB4908604C
:1029D0000020C14908700520BC49087011E0BF48BB
:1029E0000570002003460090B9480278BB48017882
:1029F000012000F097FA0020B64908600720B3498B
:102A0000087056E13C2004F093FC70B3B1480068B4
:102A100090B9B0480068401CAE49086000200346E9
:102A20000090AB480278A7480178002000F07AFABD
:102A30000020A949087021E0A8480770002003463B
:102A40000090A3480278A5480178012000F06AFAB6
:102A50009F4800789B49087000209E49086097496C
:102A6000086007209949087008E0FFE79A48007855
:102A7000002803DD012095490870824619E1944839
:102A8000007800EB8000400000F5FA78404604F042
:102A90004FFCC0B1914806700020034600908C485E
:102AA00002788E480178012000F03CFA88480078CE
:102AB0008449087000208749086080490860072021
:102AC0008249087007E084480078002803DD01206F
:102AD0007E4908708246ECE079480078C0F34000F7
:102AE000B8B37F4800787A490978884226D17D4872
:102AF0000078022822D17248006820F0080070494E
:102B00000860794800786F490870002072490870A1
:102B1000034600906E4802786A480178002000F071
:102B200001FA6B4800786D4908700020634908601D
:102B30006849086005206549087003E00120634981
:102B4000087082465E48006820F002005C49086018
:102B500059E0FFE73C2004F0EBFB20B9584800782F
:102B600010F0010F4FD056480078C0F3C00040B1BC
:102B70000020554908700220544908704FF0010A9E
:102B80003BE05048007852490978884212D0002032
:102B900051490870034600904D4802784948017831
:102BA000002000F0BFF900204A490860052047498D
:102BB000087022E04648007885420FD047480570EB
:102BC00000200346009042480278444801780120E2
:102BD00000F0A8F900203F4908600EE0384800687E
:102BE00020F0080008303649086000203649087097
:102BF0000220364908704FF0010A3148006820F081
:102C000001002F49086054E0384800F0DCFC04461D
:102C10007CB160786188CDE900103548008881B2C8
:102C2000231D314802783348006802F0CDFC81460C
:102C300001E04FF00009B9F1000F1DD02B4800F062
:102C4000DEFC0446207810B14FF0050B01E04FF098
:102C5000060B608800906178231D1D480278584655
:102C600000F060F90120194908701548006820F04B
:102C700002001349086017E0FA2004F059FB00B97C
:102C800094B100200346009011480278164801785C
:102C9000072000F047F901200C4908700848006837
:102CA00020F002000649086003E00120074908708F
:102CB00000BF00BF5046BDE8FC9F0000900100200F
:102CC0009801002087010020860100209601002045
:102CD000710100208C010020A1010020880100204A
:102CE000A0010020A2010020AA01002074150020EC
:102CF0009C010020A401002070B5002400257A4822
:102D00000078002873D179480078012870D178487C
:102D10000078FF2804DA76480078401C744908706F
:102D200000207249087004F00DFB724800785528A5
:102D300047D170484078FF2801D1002408E06D4851
:102D40004078552804D16B488078552800D101245B
:102D5000FF206949087000250AE0A91C2144654A42
:102D6000505C65490978FEF714FE634908706D1CD4
:102D7000052DF2DDA01D5F49095C601D5D4A105CF8
:102D800001EB00205D490860A01C1146085C5C490D
:102D90000870E01C1146085C5A490870201D114655
:102DA000085C594908705448007855280AD057489B
:102DB000006820F00100401C5449086000204A4986
:102DC000087087E04D480068F0B94E4800785049D7
:102DD0000978884203D04B480078FF2809D14B4836
:102DE000006820F00200801C4849086008E075E097
:102DF00073E04648006820F00400001D4349086065
:102E000000203949087065E0002519E005F1080146
:102E10002144384A505C3F490988FEF7A2FD3D49EC
:102E200008803D4800883D490988884207DA05F155
:102E3000080020442F49085C3949096848556D1C31
:102E40002E4800688542E1D305F108012144294A52
:102E5000505C30490988FEF784FD2E49088005F151
:102E600009012144234A505C2A490988FEF779FD6B
:102E70002849088008460088A0F57041B83919D162
:102E80002048007822490978884203D01D480078FC
:102E9000FF2807D11D48006820F00200801C1B4954
:102EA00008600EE01948006820F00400001D174972
:102EB000086006E01548006820F00100401C134936
:102EC0000860002008490870134908804FF6FF7019
:102ED0001049088000200549087003E000200249DD
:102EE000087000BF00BF70BD9501002001000020E8
:102EF000A1010020E8010020820100209C010020A7
:102F0000A2010020A0010020AA01002098010020B9
:102F1000710100208001002084010020A801002010
:102F2000A40100202DE9F05F8046894692461F46A5
:102F30000A9C4FF0FF0B4FF6FF760025494800F042
:102F400007FB494908600846006800287ED05520E4
:102F500009680871FF2144480068417142480068CF
:102F600080F806804049096888795946FEF711FDC6
:102F700083463D48006880F807903B490968C87956
:102F80005946FEF706FD83463748006880F808A0DA
:102F900035490968087A5946FEF7FBFC8346204606
:102FA000E11704EB11610A0A2F4909684A722E4998
:102FB0000968487A5946FEF7ECFC83462046E1173B
:102FC00004EB11610912A4EB0121CAB22649096878
:102FD0008A7225490968887A5946FEF7DAFC8346E1
:102FE0006FEA0B00C1B220480068C17208201E4978
:102FF00009680880002C33D000BF0DE0785D3146B1
:10300000FEF7AFFC06467A5D05F10800164909682F
:10301000091D0A54681C85B2A542EFDBF04386B255
:1030200004F1080010490968091D0E54320A401CB9
:103030000D490968091D0A540B480068008820449E
:103040000949096808800848006800E005E0008830
:10305000801C05490968088002E0002002490860D8
:10306000BDE8F09F501100207C01002010B500BF8A
:103070001D48007810B1032829D115E01B4800F045
:1030800086FA80B9194800F09EFA19490860084686
:103090000068018816480068001D04F0ADFA03209E
:1030A00011490870E4E716E004F010F970B104F07B
:1030B00019F958B1002004F029F90C4800F09FFAE2
:1030C00001200C49087000200749087003E0002027
:1030D0000549087000BF00BF0348007808B101200F
:1030E00010BD0020FCE700007401002050110020FA
:1030F000780100207001002000BFFEE7704700004B
:1031000070B5002100230F22C47824B3174C246823
:1031100004F4E064C4F5E064C4F30721C1F10404DD
:10312000E3B20A4144789C40E1B2847814402143E0
:103130000C07210E0E4C05786155047804F01F052C
:103140000124AC4005786D114FF0E02606EB8505B3
:10315000C5F8004109E0047804F01F040125A540EA
:10316000044C0678761144F8265070BD0CED00E052
:1031700000E400E080E100E010B5002807DA0A076B
:10318000140E054A00F00F031B1FD45403E00A0776
:10319000130E024A135410BD18ED00E000E400E0E5
:1031A0007047000010B501460020002300220529C9
:1031B00010D200BF0BE0084C04EB0114A35CFF2B02
:1031C00004D0054C04EB0114A05C02E0521C102A50
:1031D000F1D300BF10BD0000BA15002029B1064A86
:1031E00012680243044B1A6004E0034A12688243E7
:1031F000014B1A60704700003038024029B1064A7E
:1032000012680243044B1A6004E0034A12688243C6
:10321000014B1A607047000040380240F0B50021B1
:1032200000220024022500260223324F3F6807F0C7
:103230000C0121B1042905D0082937D105E02E4F12
:10324000076036E02D4F076033E02A4F3F1F3F688D
:10325000C7F38056274F3F1F3F6807F03F036EB10B
:10326000264FB7FBF3F7DFF88CC0ACF1040CDCF8A9
:1032700000C0CCF3881C07FB0CF40CE01E4FB7FB1E
:10328000F3F7DFF870C0ACF1040CDCF800C0CCF34D
:10329000881C07FB0CF4174F3F1F3F68C7F301471B
:1032A0007F1C7D00B4FBF5F7076002E0124F07605A
:1032B00000BF00BF0F4F3F6807F0F0010909104F32
:1032C0007A5C0768D74047600A4F3F6807F4E051CF
:1032D000890A0B4F7A5C4768D7408760054F3F6883
:1032E00007F46041490B064F7A5C4768D740C760D6
:1032F000F0BD0000083802400024F40040787D0151
:10330000100000202DE9F04788B081460F46904616
:103310001C460025AA46002621893648E26803F0AB
:1033200096FE05462B463A4632494846CDF800807F
:1033300003F0F3FA8246BAF1000F05D1362060742B
:10334000B01E08B0BDE8F0872E44002501208DF89E
:103350001C001F208DF81D002088ADF80400606857
:1033600002902089ADF80C00E06804902148059097
:103370004FF4F070069001A8FEF732FC0546002DD0
:1033800021DAA81C01D0E81C04D19DF81D0060744E
:103390002846D6E79DF81D209DF81C10154803F01F
:1033A0006EFE0546BA192B4612494846CDF80080F4
:1033B00003F0B3FA8246BAF1000F18D136206074D8
:1033C0006FF00100BDE7B819401C2844401C40457F
:1033D00008DAB91901EB09002A46064903F06DFE27
:1033E000054604E0362060746FF00100A9E72E4422
:1033F0003046A6E798060020F0B503460C464FF08D
:10340000FF365968DD685F69082C17D18A4203D2FC
:10341000186850F8226020E04819904204D9521AE6
:10342000986850F8226018E048193844904214D93E
:103430004819121A186950F822600EE0692C05D15B
:103440008A420AD2186850F8226006E0502C04D153
:10345000AA4202D2986850F82260B0B2F0BD10B50E
:1034600002460020082905D15468D3681C445369DA
:10347000E01806E0692901D1506802E0502900D126
:10348000D06810BDF0B593B005460C464FF0FF363E
:103490000027206908B1606910B9002013B0F0BDA1
:1034A000276920894B2804D04D2819D04F2841D1B5
:1034B00030E0E068401C06D00220207632206076A2
:1034C0004FF0FF360BE02088082802D11E48006824
:1034D000606021883846626802F0D3FA064630E020
:1034E000E068401C06D002202076322060764FF043
:1034F000FF360EE015A101A801F0CEFB686918B1F6
:10350000606801A96A69904701A9384602F07FFA0C
:10351000064616E0E068401C06D0022020763220E5
:1035200060764FF0FF3604E02188384602F08EFACC
:10353000064606E0A86918B12046A96988470646EC
:1035400000BF00BF3046A9E7640100200000000072
:1035500030B50446002584B1204600F025F860B956
:103560002568E068A168B0FBF1F201FB1200616818
:1035700000FB0155E068401CE060284630BD014674
:1035800019B1CB680A69981A70470020FCE710B59A
:1035900004463CB12046FFF7F2FF08B9012010BDF8
:1035A0000020FCE70120FAE710B504464CB12046A4
:1035B000FFF7E5FFA168884201D1012010BD00207E
:1035C000FCE70120FAE730B5044600252046FFF766
:1035D000DEFF48B925682069A168B0FBF1F201FB64
:1035E0001200616800FB0155284630BD10B528B1B6
:1035F0000024C460046101604260836010BD30B586
:10360000044600252046FFF7C2FF60B925682069FF
:10361000A168B0FBF1F201FB1200616800FB0155EB
:103620002069401C2061284630BD704770B588B0C5
:103630000446002500266A4603A9204603F0CEF87A
:1036400005462B462246694603A802F05FF9064666
:1036500000BF08B070BD00002DE9F047A4B00546DA
:103660000E46174698464FF000090024A24601A8CE
:1036700002F088F801F05EFB10B924B0BDE8F087D5
:103680001FA802F06AF80022114606A803F038FAD3
:1036900006AB01AA1FA9104803F041FA044608200E
:1036A000ADF824000A95ADF82C600C9741460DA8A2
:1036B00001F0ABFA0849081909A903F0BFF88146DF
:1036C0004C442346044A06A91FA802F01FF982466B
:1036D00000BF00BFD1E70000780800202DE9F04FBF
:1036E00093B005460F4690469946DDE91CAB00268F
:1036F00000200D9000240C9001F01CFB18B9002054
:1037000013B0BDE8F08F0DB90020F9E703F0C2FE59
:1037100006468EB30EA802F035F80022012102A859
:1037200003F0EEF902AB0EAA2946174803F0F7F9A9
:103730000446ADF81480CDF81890ADF81CA0CDF873
:1037400020B01149081905AA314603F028FC0D9054
:103750000D980444A0B2B8420FDAA0B20A4B02AAF4
:1037600029460090304603F0DFFE2346064A02A9B0
:10377000284602F0CBF80C9003E0304603F072FECE
:1037800000263046BCE70000780800200CB5002079
:10379000019000902D48006840F480302B4908606B
:1037A00000BF2A48006800F4003000900198401CD7
:1037B0000190009818B90198B0F5A06FF1D1234895
:1037C000006810F4003F02D00120009001E00020CA
:1037D00000900098012837D11C48083000681B4928
:1037E000083108600846006840F400400860084658
:1037F000006840F4A05008601548091F0860081FC1
:10380000006840F08070091F086000BF0F48006822
:1038100010F0007FFAD040F203700E4908600B48A8
:103820000830006820F003000849083108600846A5
:10383000006840F00200086000BF044808300068DB
:1038400000F00C000828F8D10CBD00000038024040
:10385000193C4005003C0240042808D14FF0E0210B
:10386000096941F004014FF0E022116107E04FF0D7
:10387000E021096921F004014FF0E0221161704755
:103880000D480068401C0C4908600C48007801286D
:1038900011D10B480068401C0949086008460068BF
:1038A000022808D100200549087001200549087048
:1038B0000020054908707047040000200200002025
:1038C00008000020010000200000002010B5124870
:1038D000006840F001001049086000200E490831DE
:1038E00008600D4800680D4908400B4908600C4805
:1038F000091D0860081F006820F48020091F086067
:10390000002005490C310860FFF740FF4FF00060D0
:103910000449086010BD000000380240FFFFF6FEB9
:103920001030002408ED00E010B543F69824B4F1FF
:10393000807F00D311E024F07F40401E4FF0E02153
:1039400048610F214FF0FF30FFF716FC00204FF0C9
:10395000E02188610720086100BF6FF00400FFF7D5
:103960007BFF0321081FFFF707FC10BD10B540F2D5
:1039700025510B4800F091F888B1094800F056F93C
:103980000849094A12788854012008490870002023
:103990000749086004480078401C0349087010BDBE
:1039A000004C0040E8010020000000200200002040
:1039B0000800002021B1828942F40052828104E093
:1039C00082894DF6FF731A408281704700B587B037
:1039D00001210846FFF702FC01210846FFF7FEFB24
:1039E0000121C804FFF70AFC082200212248FEF743
:1039F0003DFD082201212048FEF738FD01200590F9
:103A000002208DF8180000208DF81A0002208DF891
:103A1000190001208DF81B0005A91748FEF7DEFCF0
:103A20000220059000208DF81A0002208DF81B005E
:103A300005A91148FEF7D2FC4FF416400190002072
:103A4000ADF80800ADF80A00ADF80C00ADF81000B4
:103A50000C20ADF80E0001A9084800F06DF8012215
:103A600040F22551054800F042F801210348FFF7D4
:103A7000A1FF07B000BD000000000240004C004064
:103A800002460020B1F5007F00D100BF13880B4231
:103A900001D0012000E00020704770B502460024EC
:103AA000002300250020A1F510666A3E00D100BF6A
:103AB000C1F3421501F01F03012606FA03F3012D9D
:103AC00002D19689334006E0022D02D1168A334096
:103AD00001E0968A33400C12012606FA04F4168897
:103AE000344013B10CB1012000E0002070BDF0B5EE
:103AF00003460024002600250020A1F510676A3F38
:103B000000D100BF1846C1F3421401F01F0601277F
:103B100007FA06F5012C01D10C3004E0022C01D18A
:103B2000103000E014301AB107682F43076002E03C
:103B30000768AF430760F0BD2DE9FF4705460E4615
:103B40000024A14600BFA046B08900B100BF2C8A66
:103B500024F44054F08804432C82AC8941F20C6078
:103B60008443B08831890843718908430443AC8198
:103B7000AC8A24F44074B0890443AC826846FFF7F1
:103B80004DFB2048854202D01F48854202D1DDF816
:103B90000C9001E0DDF80890A88910F4004F08D0DF
:103BA00009EBC90000EB091031684900B0FBF1F7DF
:103BB00007E009EBC90000EB091031688900B0FB90
:103BC000F1F76420B7FBF0F004012009642101FB48
:103BD0001078A88910F4004F08D0322000EBC800FC
:103BE000B0FBF1F000F00700044308E0322000EBE6
:103BF00008106421B0FBF1F000F00F0004432C81A9
:103C0000BDE8FF87001001400014014008B53420D2
:103C10008DF8000000208DF801008DF802000120D1
:103C20008DF803006846FFF76BFA08BD01468888E7
:103C3000C0F308007047C1F308028280704700BFDC
:103C4000FEE730B504460120A5788D4204D000205F
:103C50000225157009251D7030BD01460020A1F117
:103C60003302062A0ED2DFE802F0030507090B0E25
:103C700001200AE0022008E0032006E0042004E01E
:103C8000402002E000BF002000BF00BF704730B5F9
:103C90000446002044B113B17125257001E0702560
:103CA00025706170A270032030BD70B504460025F8
:103CB00001F036F848B1112C02D0142C02D100E0EA
:103CC00000BF01E0012500BF00BF284670BD2DE9FF
:103CD000F04704460F4615469846DDE9089A002647
:103CE0002078C0F3C00028702078C0F3800068708E
:103CF0002078C0F34000A870607801F04FF9686048
:103D0000607801F02EF9A860A0782873032628783F
:103D100048B13046711C8EB2205C68733046711C0D
:103D20008EB2205CA8733046711C8EB2205C88F87D
:103D30000000A019C9F80000B81BAAF8000030461E
:103D4000BDE8F0872DE9F04790B007460C461646CF
:103D500000200C900D900E900F900A900B908046D2
:103D60000990089007900025069005900490039014
:103D700081468246002C6ED0207800F0F00010F0D2
:103D80000F0F69D10011082866D2DFE800F004396E
:103D90005B9BFEF9F8F707A808A909AB0CAACDE9C7
:103DA000001031462046FFF792FF05469DF824009B
:103DB000FFF77BFF00B160E19DF824001E2811DAB7
:103DC000B0489DF8241050F8210058B1AD489DF836
:103DD000241050F821C00CAB3A46BDF81C100898CE
:103DE000E0470CE0A848006848B10CAB3A46BDF883
:103DF0001C10DFF894C20898DCF800C0E0473CE1F2
:103E000060780990A01C0890B01E80B207909DF8C1
:103E1000240000F0C3F900B12FE19DF824000A2826
:103E20000FDA9A489DF8241050F8210048B19748BD
:103E30009DF8241050F821303A46BDF81C1008981F
:103E400098471AE194F80180A07809909DF8240021
:103E50001D2834D201E011E10EE1DFE800F00F107F
:103E60001130301230301516301730303018191A22
:103E7000301C1B301D30301E3014130000BF00BF3B
:103E800000BF00BF00BF00BF00BF00BF00BF00BF3A
:103E900000BF00BF00BF00BF00BF7D489DF82410D9
:103EA00050F8210038B17A489DF8241050F82120AC
:103EB000414638469047404603F0D4FA00E000BF40
:103EC00000BFDAE02078C0F3C0008DF82800207829
:103ED000C0F380008DF8290060788DF82A008046B4
:103EE00002259DF8280048B128466D1C205C8DF8FD
:103EF0002B0028466D1C205C8DF82C0028466D1C7C
:103F0000205C099060190890701B80B207909DF8A2
:103F10002400C01E1B2835D2DFE800F00E0F34113C
:103F20001234341334141516343434183434193428
:103F30001A1B34173434100000BF00BF00BF00BF8D
:103F400000BF00BF00BF00BF00BF00BF00BF00BF79
:103F500000BF4F489DF8241050F8210050B14C4844
:103F60009DF8241050F821C00AAB3A46BDF81C1049
:103F70000898E047404603F075FA04E065E053E036
:103F800007E002E000BF00BF77E0404603F06AFAB6
:103F900073E094F80180A078099003259DF824002F
:103FA000122805D16019002100F0C5FF00B16D1C79
:103FB000601905AA06A901F06FF80544601903AA63
:103FC000059900F07BFF0544601905AA06A901F0D8
:103FD00063F80544601904AA059900F06FFF0544D1
:103FE0009DF82400122805D16019002100F077FF08
:103FF00000B16D1C9DF824001E2811DA25489DF89B
:10400000241050F8210058B10498C3B20398C2B2EA
:1040100020489DF8241050F821C041463846E0471A
:10402000404603F01FFA28E094F8018094F80290CB
:104030001948006828B14A4641463846164B1B6865
:104040009847404603F00EFA17E0207800F0010A86
:1040500094F8018094F802901048006840B15346EB
:104060004A4641463846DFF834C0DCF800C0E04735
:10407000404603F0F7F900E000BF00BF10B0BDE814
:10408000F0870000E80200204C00002060030020C0
:10409000880300200004002054000020500000206D
:1040A00001480078704700002200002010B5024649
:1040B000002100200023282A21DA00BF0BE0104C49
:1040C000645C944206D101230E4C54F8214004B1A3
:1040D000012002E0491C1E29F1DB00BF7BB9002151
:1040E0000AE0094C645C944205D1084C54F8214024
:1040F00004B1012002E0491C0A29F2DB00BF10BD17
:1041000023000020E802002041000020600300207E
:10411000C21E1B2A20D2DFE802F00E0F1F11121F51
:104120001F131F1415161F1F1F181F1F191F1A1BDF
:104130001F171F1F100000BF00BF00BF00BF00BF40
:1041400000BF00BF00BF00BF00BF00BF00BF00BF77
:10415000034A42F8201000E000BF00BF7047000093
:10416000880300201E2802DA014A42F82010704716
:10417000E80200200A2802DA014A42F820107047BB
:104180006003002001490860704700004C000020D7
:1041900001480088704700002000002070B50446E8
:1041A000002500F0BDFD08B1012508E000F0CCFDC0
:1041B00028B1082C00D101E0012500BF00BF28462E
:1041C00070BD000001480078704700007E000020AC
:1041D00010B5FCF74BF8602190FBF1F201FB1200E7
:1041E00020300849087040F2F4600749088005480B
:1041F000007800EB8000098801EB4000024908804C
:1042000010BD00007E0000208000002001490870E1
:10421000704700007E0000200146002080290FDA50
:10422000084A525CC2F340024AB9064A525CC2F3E1
:10423000C00222B9034A525CC2F3800202B10120DB
:1042400070470000720A0020802806DA0349095CE2
:1042500021F00201891C014A11547047720A0020A2
:104260000148007870470000830000200149087071
:10427000704700008300002070B50024002500BFB7
:1042800007E0204600F038F808B1681CC5B2601C91
:10429000C4B2802CF5DB284670BD2DE9F0410546FF
:1042A00000240026FF2700BF0BE0204600F024F882
:1042B00028B1AE4201D1274605E0701CC6B2601C91
:1042C000C4B2802CF1DB00BF3846BDE8F08170B588
:1042D00000240025FF26FFF7CFFF044654B1FBF76B
:1042E000C5FF90FBF4F104FB1100C5B22846FFF7AF
:1042F000D4FF0646304670BD70B504460025802CBC
:1043000009DA0648005D10F0010F04D02046FFF7DF
:1043100083FF00B90125284670BD0000720A002005
:1043200010B5002400BF20E01448005D20F0040018
:10433000124908550846005D20F00200085508465D
:10434000005D20F001000855202C06DA0846005DCB
:1043500020F008000830085505E00848005D20F00E
:10436000080006490855601CC4B2802CDCDBFFF74E
:104370002FFF00200249087010BD0000720A0020C3
:104380008200002030B502460023FF240021501C8B
:10439000C51700EB5565ED11A0EBC515E9B200BFDF
:1043A00010E00B48405CC0F3800008B10C460BE005
:1043B000481CC51700EB5565ED11A0EBC515E9B21A
:1043C000581CC3B2802BECDB00BF204630BD000080
:1043D000720A002001480078704700008200002027
:1043E00010B50446802C12DA0948005D10F0010F68
:1043F00006D0FFF741FF002802DD012005490870C3
:104400000348005D20F00100401C0149085510BD23
:10441000720A0020820000200148008870470000D6
:1044200080000020802806DA0349095C21F004019D
:10443000091D014A11547047720A002002461020DB
:10444000982A7AD00CDC352A3CD004DC022A20D011
:10445000262A68D13CE0662A69D0842A7FD148E0C8
:10446000D32A58D0D42A04D0D62A04D0DA2A76D136
:1044700000E000BF00BF21B1012903D0022905D10E
:1044800002E000BF022002E0042000E000BF00BF05
:1044900066E0092912D2DFE801F00506080A120BCE
:1044A0000C0E0F0000BF0C200AE0092008E000BF3E
:1044B00000BF022004E000BF012001E000BF00BFF8
:1044C00000BF4DE009B90C2000E000BF00BF47E08D
:1044D00059B1012904D0022908D0032904D101E0EF
:1044E0000C2004E0022002E000BF00BF00BF00BFBC
:1044F00036E031B1012907D0022907D0032907D1BD
:1045000000E000BF0C2004E0092002E0022000E0EF
:1045100000BF00BF24E011B1012905D100E000BFB8
:104520000C2002E009E01AE000BF00BF18E009B962
:104530000C2000E000BF00BF12E005290CD2DFE82C
:1045400001F003040507090000BF06E0012004E0B4
:10455000022002E0042000E000BF00BF00E000BF36
:1045600000BF70472DE9FC5F05460E4693460027C5
:10457000B9460024002001908246804600902878A9
:1045800000F00700062858D128196A4601A900F052
:1045900083FD07463C449DF804A04FF0010848E025
:1045A000285D00F0070006280ED128196A4601A9E7
:1045B00000F072FD07469DF80400504529D108F12E
:1045C000010000F0FF0824E0285D00F00700072844
:1045D0000ED128196A4601A900F05EFD07469DF834
:1045E0000400504515D1A8F1010000F0FF0810E0CB
:1045F000285D00F00800082806D1311B28195A460A
:1046000000F078F8074604E0311B281900F04EF856
:1046100007463C44B8F1000F06D0002F01DDB94435
:1046200002E04FF0FF3907E0B44202D94FF0FF3902
:1046300002E0B8F1000FB3D100BF4846BDE8FC9FCF
:104640002DE9FC4705460F4614460026B046B14604
:1046500000200190009000BF2DB324B3287800F013
:10466000080008281FD0002020706A4601A92846AB
:1046700000F012FD8046B8F1000F12D046449DF8BC
:104680000400A070A81923469DF80410009A00F0B9
:1046900064F88146A078102801D04E4401E04FF024
:1046A000FF360020E0643046BDE8FC872DE9FC4180
:1046B00004460E4600250027A846002001900090E1
:1046C00000BFA4B1207800F0080008280FD06A4687
:1046D00001A9204600F0E0FC074647B13D446019BF
:1046E0009DF80410009A00F093F88046454428464F
:1046F000BDE8FC812DE9FC4704460E46174600251F
:10470000AA46A846002001900090814600BF0CB345
:10471000207800F0080008281CD16A4601A920462C
:1047200000F0BAFC8046B8F1000F13D045469DF862
:1047300004103846FFF782FE8146B9F1100F07DA00
:1047400060194946009A00F063F88246554401E03A
:10475000009805442846BDE8FC872DE9FC41074642
:104760000D4616461C464FF00008002F43D0002C83
:1047700041D0072D1FD006DC012D09D0022D0CD011
:10478000042D36D110E0092D1CD00C2D31D120E0A4
:10479000304600F079FB20712CE0221D314638466E
:1047A00000F0C4FC804625E0221D3146384600F06A
:1047B00053FC80461EE0221D3146384600F069FB5E
:1047C000804617E0221D3146384600F077FB8046D0
:1047D00010E00020019000906B4601AA3146384657
:1047E00000F017FC8046BDF80400A0800099A1608D
:1047F00000E000BF00BFB8F1000F06D12DB1012DC0
:1048000003D0062D01D01020A0704046BDE8FC81E9
:1048100010B504460020D4B10D2916D2DFE801F00E
:104820000708090A0B0C0D0E0F10111213000DE0F2
:104830000CE000BF00BF00BF00BF00BF00BF00BF53
:1048400000BF00BF00BF104600E000BF00BF10BDAA
:104850002DE9F04704460E4617469846DDF82090AD
:10486000002574B1502020706670A7700325601970
:10487000414601F0EBF805446019494601F0E6F8BD
:1048800005442846BDE8F08710B502460020D2B1A5
:10489000C9B10B78137000BF04E04B1C1C5C531CA7
:1048A0001C54401C0728F8DB0B8913818B7A937208
:1048B000002006E001F10B031C5C02F10B031C5409
:1048C000401C0728F6DB10BD70B502460B460021E0
:1048D0000024012015781E78B54200D000201478FD
:1048E000072C00DD0724002108E0551C6E5C5D1CD0
:1048F0006D5CAE4200D000204D1CE9B2A142F4DB59
:1049000015891E89B54200D00020957A9E7AB5425D
:1049100000D00020947A072C00DD072400210AE053
:1049200002F10B056E5C03F10B056D5CAE4200D02D
:1049300000204D1CE9B2A142F2DB70BD10B51A2077
:1049400001F008F87F2001F025F8002000F030FF8A
:104950000020FDF751F81448FFF714FC1349082014
:10496000FFF708FC12490720FFF704FC11490C204F
:10497000FFF7F8FB10490E20FFF7F4FB0F49142056
:10498000FFF7F0FB0E490F20FFF7ECFB0D4911205C
:10499000FFF7E8FB0C490C20FFF7BAFB01210B489D
:1049A00002F022FD10BD0000C9650008796600080C
:1049B0002566000839600008D5610008F964000820
:1049C000C9660008515F0008856100088400002066
:1049D0002DE9F043A1B04FF000084FF0FF390E2051
:1049E0008DF85D0001208DF85C000020ADF86400BA
:1049F0000E208DF8670001208DF8660004900420D9
:104A00008DF80E0000208DF80C00169000251CE09B
:104A10002846FCF743FD0746AFB92846FCF768FD7A
:104A200080462846FCF750FD06463EB1B8F1010F1E
:104A300002D14FF0000801E04FF00108B8F1010F7A
:104A400000D100E000BF681CC5B2052DE0DB1748AF
:104A5000007801280ED1002014490870401E55210D
:104A600001230322CDE900104FF4F07117A8FEF7DF
:104A700035FE81460E4802F097FC28B10C4802F042
:104A8000A5FC012000F0E4F900234FF4017209496C
:104A90001CA800F0B9FE044624B1224605491CA812
:104AA00002F0D2F821B0BDE8F083000070010020D0
:104AB00084000020F20A002001460878704730B5D3
:104AC0000146002400230022087848B10878401EDF
:104AD000C2B21046D51702EB5575EB105B1C1C4695
:104AE000204630BD014600220A70002003E000236A
:104AF0004A1C1354401C0F28F9DB70470246002063
:104B00001AB10F2901DA531C585C704770B514466E
:104B10000D46CE1701EB5676C6F3C70201230F2AC6
:104B200015DA06784D1CAE4200DA0570A1EBC2051D
:104B300003FA05F5EBB22CB1451CAD5C1D43461CD8
:104B4000B55404E0451CAD5C9D43461CB55470BD96
:104B50000146002011F0010F01D040F0800011F05B
:104B6000020F01D040F0400011F0040F01D040F0DE
:104B7000200011F0080F01D040F0100011F0100FCC
:104B800001D040F0080011F0200F01D040F00400E7
:104B900011F0400F01D040F0020011F0800F01D061
:104BA00040F0010070472DE9F04104460D46002712
:104BB000C5B1BCB12846FBF75DFC216888421CD119
:104BC0002079D0B90127002606E0A95D601D805D2F
:104BD000814200D00027761C2068B0420DD9002FFA
:104BE000F3D10AE02DB12846FBF744FC28B9012790
:104BF00003E014B1206800B901273846BDE8F08110
:104C00000146002001B13F2070472DE9F0410546E3
:104C10000C46204600F051F80646204600F07AF88F
:104C20000746204600F009F8804633463A4641469A
:104C3000284600F007F8BDE8F0810146002001B1E8
:104C400008797047F0B504460D4600201CB30026D5
:104C5000266025713F2B1ED8A2B100210FE099429A
:104C600009D2575C661DD4F800C006F80C7026689F
:104C7000761C266002E00027661D7754491C4029F7
:104C8000EDD307E0002103E00027661D7754491C9F
:104C90004029F9D30120F0BD70B505460C461CB182
:104CA0002046FBF7E7FB00E000200646334622469D
:104CB00000212846FFF7C6FF70BD0146002001B164
:104CC0000868704730B502460020C9B1C2B10C680F
:104CD0001568AC421DD10C791579AC4219D101206F
:104CE000002307E04C1DE55C541DE45CA54200D0A8
:104CF00000205B1C0C689C420BD90028F2D108E014
:104D000019B10C682CB9012003E012B1146804B980
:104D1000012030BD0146002001B1481D7047000050
:104D200003480078012800D170470020FCE700000C
:104D30005C0000200348007808B90120704700207B
:104D4000FCE700005C00002003480078022801D145
:104D5000012070470020FCE75C0000202DE9FE43A5
:104D600005460F4616469846DDF828900024002098
:104D7000029001900090002F50D02819002100F0DF
:104D8000C4F878B1281901AA02A900F085F90444F1
:104D900028196A46019900F0C9F904442EB1009817
:104DA000308002E00EB1002030802819012100F08F
:104DB000ACF818B94FF0FF30BDE8FE83281901AAFE
:104DC00002A900F069F9044428196A46019900F023
:104DD00075F80444B8F1000F02D0009888F800007C
:104DE000BC4214D22819022100F08FF810B94FF0FC
:104DF000FF30E1E7281901AA02A900F04DF90444A7
:104E000028194A46019900F044F8044406E0B9F133
:104E1000000F03D000214846FFF73EFF2046CBE7B6
:104E200010B502460020032A0CDA074B1A701AB993
:104E30000023064C236004E0C1EB01139B00034CEC
:104E40002360012010BD00005C00002058000020FD
:104E50000B49096891B10A490968814205D9084995
:104E60000968091A064A116002E00021044A11602B
:104E70000349096811B90021024A11707047000006
:104E8000580000205C0000200146002001B10120F4
:104E900070472DE9F04104460D4616460027B846F6
:104EA0006B1E2178621C3046FFF7CCFE8046B8F1BD
:104EB000000F00D02F463846BDE8F081F8B5054612
:104EC0000E461446002000906A463146284600F0FF
:104ED0002DF907460CB1009820603846F8BD38B56A
:104EE00004460D46002000906946204600F0C3F8B5
:104EF000207800F00700072805D19DF80000A8429F
:104F000001D1012038BD0020FCE738B504460D462C
:104F1000002000906946204600F0ADF8207800F0AF
:104F20000800082805D19DF80000A84201D1012001
:104F300038BD0020FCE738B504460D46002000903F
:104F40006946204600F097F8207800F00700062810
:104F500005D19DF80000A84201D1012038BD0020F4
:104F6000FCE70146002001F00F02062A13D2DFE819
:104F700002F0030507090C0F32200DE080200BE042
:104F8000CE2009E04FF4F07006E04FF4806003E0BB
:104F900040F2C45000E000BF00BF7047014600204F
:104FA00001F0F00212F00F0F18D11211082A15D2D9
:104FB000DFE802F00406080A0C0E101200200EE0D2
:104FC00002200CE004200AE0082008E0102006E09F
:104FD000202004E0402002E0412000E000BF00BFAC
:104FE0007047F8B506460C4615460020009000278D
:104FF0006946304600F0EAF8074640F2FF31009873
:1050000001EA905020800098C0F3150028603846CF
:10501000F8BD2DE9F04107460C4615461E46042C06
:1050200002D00020BDE8F081324629463846FFF71D
:10503000D8FFF7E708B50246D0788DF800009078E1
:105040008DF8010050788DF8020010788DF803007B
:1050500000980860042008BD70B506460C46154649
:10506000042C03D000202860204670BD294630461D
:10507000FFF7E0FFF9E702460120137803F0F003A1
:10508000F02B04D109B153780B70401C03E011B12F
:1050900013781B110B7070472DE9FC4106460F4633
:1050A0001446012539463046FFF7E5FF05463078BE
:1050B00000F0070005281FD1705DFF2809D16D1C85
:1050C0007019694600F082F8054434B300982060F6
:1050D00029E0705DFE280AD16D1C701901A900F04D
:1050E00050F80544CCB1BDF8040020601BE00CB1C1
:1050F000705D20606D1C16E0307800F00700062817
:1051000003D114B1002020600DE0307800F00700DA
:10511000072803D114B10020206004E01CB13078CE
:1051200000F0070020602846BDE8FC81F8B506467F
:105130000D461446002000900CB3012D06D0022D20
:1051400007D0032D0DD0042D15D10FE0307820604D
:1051500014E06946304600F014F8BDF80000206005
:105160000CE02146304600F01AF807E021463046B0
:1051700000F02CF802E00020206000BF00BF2846AD
:10518000F8BD024649B110784FF47F4303EA00208E
:10519000088008885378184308800220704710B5AB
:1051A000024689B110784FF47F0303EA004008609B
:1051B00053784FF47F4404EA0323086818430860D7
:1051C0009378086818430860032010BD10B50246A4
:1051D000C1B110784FF07F4303EA00600860537854
:1051E0004FF47F0404EA0343086818430860937887
:1051F000241204EA0323086818430860D378086877
:1052000018430860042010BDFEB500240020029061
:10521000019000250026E348007805287BD2DFE8CE
:1052200000F0035FDAFEFD00DF480078C0F34000C5
:1052300020B9DD480078C0F3800000B3DA48006888
:1052400020F00200D84908600846006820F00400F9
:105250000860D6480078FEF7F7FFD548007810B10F
:1052600001280AD104E0D1480078FFF7DBF805E017
:10527000D0480078FFF7B4F800E000BF2FE0CA483C
:10528000007810F0010F06D0C748006820F0010038
:10529000C549086023E0FFF79DF898B1FFF717F8BC
:1052A00004462046FFF728F830B12046FEF7AEFF4F
:1052B0000120BC49087012E0FFF732F80020B9491C
:1052C00008700CE0FFF7A8F8074602F031F830B19B
:1052D000FEF778FFB54908700320B24908705EE117
:1052E000B1480078C0F3400028B9AF480078C0F357
:1052F0008000002857D0AC48006820F00200AA497E
:1053000008600846006820F004000860A84800789B
:10531000072846D200E041E1DFE800F036044322EE
:1053200035343300FEF74EFF0446A048007884422F
:1053300005D1FEF7F5FF00209A4908700FE09D485F
:10534000007884420BD10020034622460090974803
:1053500001780220FDF7E6FD02209249087021E065
:10536000FEF730FF044693480078844203D08F480C
:105370000078844204D1FEF7D3FF002089490870E9
:1053800010E000BF00BF00BFFEF71CFF04468748C7
:105390000078844204D1FEF7C3FF002081490870E1
:1053A00000E000BF16E08048007810F0010F06D042
:1053B0007D48006820F001007B4908600AE0FFF7A3
:1053C0002BF8074601F0B4FF20B1FEF7A9FF00203B
:1053D00074490870E3E074480078C0F3400020B9D5
:1053E00071480078C0F3800060B36F48006820F017
:1053F00002006D4908600846006820F0040008605B
:105400006B480078B8B9FEF7DDFE044667480078BF
:10541000844208D1FEF784FF002001E04AE029E041
:105420006049087006E063480078844202D1032096
:105430005C49087005E0FEF773FF002059490870C9
:1054400000BF16E05848007810F0010F06D056480B
:10545000006820F00100544908600AE0FEF7DCFF14
:10546000074601F065FF20B1FEF75AFF00204D49C5
:10547000087094E0FEF7A6FE0446FCF71EFE0190BD
:10548000BDF804104C4800F04AFDFCF7E3FA029026
:105490004948801C029900F050FD0620464B2246E8
:1054A0000090424801780320FDF73CFD04203D496F
:1054B000087074E03C48007810F0010F07D03A48BB
:1054C000006820F0010038490860012642E03648B3
:1054D0000078C0F3400020B933480078C0F3800062
:1054E00078B33148006820F002002F490860084670
:1054F000006820F004000860FEF764FE04462D48B2
:10550000007884421ED12D48006806281AD301A9CC
:105510002B480068FFF735FE02A929480068801C67
:10552000FFF754FEFCF7C9FDBDF80410884206D110
:10553000FCF790FA0299884201D101250AE0012680
:1055400008E001E0012605E04FF4967001F0F0FE5E
:1055500000B10125DDB1FEF735FE1A490870084695
:105560000078FEF70FFF134908700846007880287E
:1055700009DA0020034600901248027808460178B4
:105580000020FDF7CFFC00200649087005E026B199
:10559000FEF7C6FE00200349087000E000BF00BF10
:1055A000FEBD00009401002098010020AA01002007
:1055B000A2010020A0010020881500209C010020ED
:1055C000A4010020710100202DE9F04790B00646AB
:1055D0008A4617461D46DDE9189808A8C7720120BB
:1055E0008DF82A0008AB0DF12A020021304601F0A7
:1055F000BBF984B29DF8220018B1002010B0BDE8BC
:10560000F087305D00F0F0008DF83C009DF83C0024
:1056100008B10020F2E7A01C305C8DF83D00305D41
:1056200010F0080F04D0601D305C8DF83E0003E0E0
:10563000E01C305C8DF83E008DF80B8001208DF869
:105640000A006B4600220DF10A01284601F08CF990
:1056500084B29DF8020008B10020CFE7285D00F079
:10566000F0008DF81C009DF81C00502838D005DC97
:1056700048B1202819D0302841D11FE0602838D007
:1056800070283CD136E0A01C285C8DF81D00285DF8
:1056900010F0080F04D0601D285C8DF81E0003E098
:1056A000E01C285C8DF81E002BE0601C285C8DF847
:1056B0001D00A01C285C8DF81E0022E0601C285CE8
:1056C0008DF81D00285D10F0080F04D0201D285C07
:1056D0008DF81E0003E0A01C285C8DF81E0010E071
:1056E000601C285C8DF81D00A01C285C8DF81E0035
:1056F00007E000BF601C285C8DF81D0001E0002061
:105700007CE700BF9DF83D009DF81D10884201D048
:10571000002073E79DF81C0060280BD09DF81C004A
:10572000702807D09DF83E009DF81E10884201D0D9
:10573000002063E79DF820009DF80010884201D00A
:1057400000205BE70DF10A010DF12A00FFF7BCF81C
:1057500008B9002052E7012050E7002188B101225A
:105760000270FF2242704FF6FF72028100228272A5
:1057700000BF04E0002300F10B025354491C072929
:10578000F8DB7047002101220270084A127842704B
:1057900000220281827200BF04E0002300F10B02AC
:1057A0005354491C0729F8DB7047000071010020A1
:1057B00010B5044600BF02234FF40272084909489D
:1057C000FDF714FF02234FF4027207490748FDF763
:1057D0000DFF01F093FDFEF7A3FD012010BD0000B9
:1057E000400D00205011002064110020741500208D
:1057F00001480078704700007301002001480078DC
:1058000070470000720100202DE9F04704460D4664
:10581000164699464FF0000800273548006818B929
:10582000334805603348068033480078FF2802D1AA
:105830000120FEF71BFD3148007810B9FDF716FC7A
:10584000074687B92E480078C0F3400058B92C4865
:105850000078C0F3800030B92948007810F0010FBB
:1058600001D1FDF749FA2548007818BB17BB22483B
:105870000078FF2819D022480078C0F38000A0B13A
:105880001F48006820F004001D4908601D4800788A
:105890001949097888420DD1FEF7E2FC50B1FEF7B4
:1058A0003FFDFF201449087004E000BFFCF708FE2C
:1058B0000028FBD110480078FF2815D01048007848
:1058C000C0F3001080B10E48006820F010000C49B1
:1058D00008600D4800881FFA80F8012020700948F0
:1058E00000786070002020814046BDE8F08700000D
:1058F000A4010020A80100207101002095010020D2
:1059000098010020AA0100209C0100202DE9F04709
:105910000746884691461D464FF0000A00260C486F
:10592000FDF716FE044684B198F80100207000BF10
:1059300005E019F80610201D8155701C86B2AE4294
:10594000F7D3658078786070AA465046BDE8F08746
:105950007415002000B502467F2A09DC0748027052
:1059600007480078824207DD7F2000F013F803E04B
:10597000FF2A01D10148027000BD00007101002022
:1059800072010020012801DB014908707047000006
:10599000730100207F2809DC05490978FF2903D01D
:1059A00003490978814201DC024908707047000010
:1059B00071010020720100202DE9F04105460E46DC
:1059C000002401273046FFF77AF807443B460022BF
:1059D0000821284600F05FFA04462819314600F0F5
:1059E00036F904442046BDE8F0812DE9F041054632
:1059F0000C460026002704B101273B460022012166
:105A0000284600F048FA06463046BDE8F0812DE908
:105A1000F04105460E46002400273046FFF74DF9B9
:105A2000471C3B4600220721284600F034FA044672
:105A3000E019B0F5F07F05DA2819314600F06DF86D
:105A4000044400E000242046BDE8F08170B505461E
:105A50000E4600243146681C00F07BF804462346BD
:105A600000220921284600F016FA0444204670BDA1
:105A700010B5044600231A461946204600F00BFADA
:105A800010BD2DE9F04105460E46174600243A4662
:105A90003146681C00F065F80446234600220C21BC
:105AA000284600F0F8F904442046BDE8F08170B5BE
:105AB00006460D460024711C284600F067F804468F
:105AC000234600220421304600F0E5F90444204634
:105AD00070BD70B505460E4600243146681C00F0C6
